{
  "_format": "hh-sol-artifact-1",
  "contractName": "EdgentEscrow",
  "sourceName": "contracts/EdgentEscrow.sol",
  "abi": [
    {
      "inputs": [
        {
          "internalType": "address",
          "name": "_operator",
          "type": "address"
        }
      ],
      "stateMutability": "nonpayable",
      "type": "constructor"
    },
    {
      "anonymous": false,
      "inputs": [
        {
          "indexed": true,
          "internalType": "bytes32",
          "name": "jobId",
          "type": "bytes32"
        },
        {
          "indexed": true,
          "internalType": "address",
          "name": "requester",
          "type": "address"
        },
        {
          "indexed": false,
          "internalType": "uint256",
          "name": "amount",
          "type": "uint256"
        }
      ],
      "name": "Refunded",
      "type": "event"
    },
    {
      "anonymous": false,
      "inputs": [
        {
          "indexed": true,
          "internalType": "bytes32",
          "name": "jobId",
          "type": "bytes32"
        },
        {
          "indexed": false,
          "internalType": "bytes32",
          "name": "outputHash",
          "type": "bytes32"
        },
        {
          "indexed": false,
          "internalType": "uint256",
          "name": "amount",
          "type": "uint256"
        }
      ],
      "name": "Released",
      "type": "event"
    },
    {
      "anonymous": false,
      "inputs": [
        {
          "indexed": true,
          "internalType": "bytes32",
          "name": "jobId",
          "type": "bytes32"
        },
        {
          "indexed": true,
          "internalType": "address",
          "name": "requester",
          "type": "address"
        },
        {
          "indexed": true,
          "internalType": "address",
          "name": "provider",
          "type": "address"
        },
        {
          "indexed": false,
          "internalType": "uint256",
          "name": "amount",
          "type": "uint256"
        }
      ],
      "name": "Staked",
      "type": "event"
    },
    {
      "anonymous": false,
      "inputs": [
        {
          "indexed": true,
          "internalType": "bytes32",
          "name": "jobId",
          "type": "bytes32"
        },
        {
          "indexed": true,
          "internalType": "address",
          "name": "provider",
          "type": "address"
        },
        {
          "indexed": false,
          "internalType": "uint256",
          "name": "amount",
          "type": "uint256"
        }
      ],
      "name": "TimeoutClaimed",
      "type": "event"
    },
    {
      "inputs": [],
      "name": "RELEASE_TIMEOUT",
      "outputs": [
        {
          "internalType": "uint256",
          "name": "",
          "type": "uint256"
        }
      ],
      "stateMutability": "view",
      "type": "function"
    },
    {
      "inputs": [
        {
          "internalType": "bytes32",
          "name": "jobId",
          "type": "bytes32"
        }
      ],
      "name": "claimTimeout",
      "outputs": [],
      "stateMutability": "nonpayable",
      "type": "function"
    },
    {
      "inputs": [
        {
          "internalType": "bytes32",
          "name": "jobId",
          "type": "bytes32"
        }
      ],
      "name": "getStake",
      "outputs": [
        {
          "internalType": "address",
          "name": "requester",
          "type": "address"
        },
        {
          "internalType": "address",
          "name": "provider",
          "type": "address"
        },
        {
          "internalType": "uint256",
          "name": "amount",
          "type": "uint256"
        },
        {
          "internalType": "bool",
          "name": "released",
          "type": "bool"
        }
      ],
      "stateMutability": "view",
      "type": "function"
    },
    {
      "inputs": [],
      "name": "operator",
      "outputs": [
        {
          "internalType": "address",
          "name": "",
          "type": "address"
        }
      ],
      "stateMutability": "view",
      "type": "function"
    },
    {
      "inputs": [
        {
          "internalType": "bytes32",
          "name": "jobId",
          "type": "bytes32"
        }
      ],
      "name": "refund",
      "outputs": [],
      "stateMutability": "nonpayable",
      "type": "function"
    },
    {
      "inputs": [
        {
          "internalType": "bytes32",
          "name": "jobId",
          "type": "bytes32"
        },
        {
          "internalType": "bytes32",
          "name": "outputHash",
          "type": "bytes32"
        }
      ],
      "name": "release",
      "outputs": [],
      "stateMutability": "nonpayable",
      "type": "function"
    },
    {
      "inputs": [
        {
          "internalType": "bytes32",
          "name": "jobId",
          "type": "bytes32"
        },
        {
          "internalType": "address",
          "name": "providerAddress",
          "type": "address"
        }
      ],
      "name": "stake",
      "outputs": [],
      "stateMutability": "payable",
      "type": "function"
    },
    {
      "inputs": [
        {
          "internalType": "bytes32",
          "name": "",
          "type": "bytes32"
        }
      ],
      "name": "stakes",
      "outputs": [
        {
          "internalType": "address",
          "name": "requester",
          "type": "address"
        },
        {
          "internalType": "address",
          "name": "provider",
          "type": "address"
        },
        {
          "internalType": "uint256",
          "name": "amount",
          "type": "uint256"
        },
        {
          "internalType": "bytes32",
          "name": "outputHash",
          "type": "bytes32"
        },
        {
          "internalType": "bool",
          "name": "released",
          "type": "bool"
        },
        {
          "internalType": "uint256",
          "name": "stakedAt",
          "type": "uint256"
        }
      ],
      "stateMutability": "view",
      "type": "function"
    }
  ],
  "bytecode": "0x60806040523480156200001157600080fd5b5060405162001793380380620017938339818101604052810190620000379190620000e9565b80600160006101000a81548173ffffffffffffffffffffffffffffffffffffffff021916908373ffffffffffffffffffffffffffffffffffffffff160217905550506200011b565b600080fd5b600073ffffffffffffffffffffffffffffffffffffffff82169050919050565b6000620000b18262000084565b9050919050565b620000c381620000a4565b8114620000cf57600080fd5b50565b600081519050620000e381620000b8565b92915050565b6000602082840312156200010257620001016200007f565b5b60006200011284828501620000d2565b91505092915050565b611668806200012b6000396000f3fe60806040526004361061007b5760003560e01c8063aaa5a02a1161004e578063aaa5a02a1461013f578063e765c12214610168578063f08a0767146101a8578063fd4d447c146101d35761007b565b80632af8b64514610080578063570ca735146100a95780637249fbb6146100d45780638fee6407146100fd575b600080fd5b34801561008c57600080fd5b506100a760048036038101906100a29190610e72565b6101ef565b005b3480156100b557600080fd5b506100be61047f565b6040516100cb9190610ef3565b60405180910390f35b3480156100e057600080fd5b506100fb60048036038101906100f69190610f0e565b6104a5565b005b34801561010957600080fd5b50610124600480360381019061011f9190610f0e565b610760565b60405161013696959493929190610f7e565b60405180910390f35b34801561014b57600080fd5b5061016660048036038101906101619190610f0e565b6107e9565b005b34801561017457600080fd5b5061018f600480360381019061018a9190610f0e565b610aa4565b60405161019f9493929190610fdf565b60405180910390f35b3480156101b457600080fd5b506101bd610b31565b6040516101ca9190611024565b60405180910390f35b6101ed60048036038101906101e8919061106b565b610b37565b005b600080600084815260200190815260200160002090508060000160009054906101000a900473ffffffffffffffffffffffffffffffffffffffff1673ffffffffffffffffffffffffffffffffffffffff163373ffffffffffffffffffffffffffffffffffffffff1614806102b05750600160009054906101000a900473ffffffffffffffffffffffffffffffffffffffff1673ffffffffffffffffffffffffffffffffffffffff163373ffffffffffffffffffffffffffffffffffffffff16145b6102ef576040517f08c379a00000000000000000000000000000000000000000000000000000000081526004016102e690611108565b60405180910390fd5b8060040160009054906101000a900460ff1615610341576040517f08c379a000000000000000000000000000000000000000000000000000000000815260040161033890611174565b60405180910390fd5b81816003018190555060018160040160006101000a81548160ff02191690831515021790555060008160010160009054906101000a900473ffffffffffffffffffffffffffffffffffffffff1673ffffffffffffffffffffffffffffffffffffffff1682600201546040516103b5906111c5565b60006040518083038185875af1925050503d80600081146103f2576040519150601f19603f3d011682016040523d82523d6000602084013e6103f7565b606091505b505090508061043b576040517f08c379a000000000000000000000000000000000000000000000000000000000815260040161043290611226565b60405180910390fd5b837f0e334fd11ab7bea6d2bda89338c0f25674e099b70dd28aaaee262fbecba48882848460020154604051610471929190611246565b60405180910390a250505050565b600160009054906101000a900473ffffffffffffffffffffffffffffffffffffffff1681565b600080600083815260200190815260200160002090508060000160009054906101000a900473ffffffffffffffffffffffffffffffffffffffff1673ffffffffffffffffffffffffffffffffffffffff163373ffffffffffffffffffffffffffffffffffffffff161461054d576040517f08c379a0000000000000000000000000000000000000000000000000000000008152600401610544906112bb565b60405180910390fd5b8060040160009054906101000a900460ff161561059f576040517f08c379a000000000000000000000000000000000000000000000000000000000815260040161059690611174565b60405180910390fd5b610e1081600501546105b1919061130a565b4210156105f3576040517f08c379a00000000000000000000000000000000000000000000000000000000081526004016105ea9061138a565b60405180910390fd5b60018160040160006101000a81548160ff02191690831515021790555060008160000160009054906101000a900473ffffffffffffffffffffffffffffffffffffffff1673ffffffffffffffffffffffffffffffffffffffff16826002015460405161065e906111c5565b60006040518083038185875af1925050503d806000811461069b576040519150601f19603f3d011682016040523d82523d6000602084013e6106a0565b606091505b50509050806106e4576040517f08c379a00000000000000000000000000000000000000000000000000000000081526004016106db906113f6565b60405180910390fd5b8160000160009054906101000a900473ffffffffffffffffffffffffffffffffffffffff1673ffffffffffffffffffffffffffffffffffffffff16837ff552ca82e113ac3c539c3d617f29fcd19c172a0c75dad017555c9e109f7fe18384600201546040516107539190611024565b60405180910390a3505050565b60006020528060005260406000206000915090508060000160009054906101000a900473ffffffffffffffffffffffffffffffffffffffff16908060010160009054906101000a900473ffffffffffffffffffffffffffffffffffffffff16908060020154908060030154908060040160009054906101000a900460ff16908060050154905086565b600080600083815260200190815260200160002090508060010160009054906101000a900473ffffffffffffffffffffffffffffffffffffffff1673ffffffffffffffffffffffffffffffffffffffff163373ffffffffffffffffffffffffffffffffffffffff1614610891576040517f08c379a000000000000000000000000000000000000000000000000000000000815260040161088890611462565b60405180910390fd5b8060040160009054906101000a900460ff16156108e3576040517f08c379a00000000000000000000000000000000000000000000000000000000081526004016108da90611174565b60405180910390fd5b610e1081600501546108f5919061130a565b421015610937576040517f08c379a000000000000000000000000000000000000000000000000000000000815260040161092e906114ce565b60405180910390fd5b60018160040160006101000a81548160ff02191690831515021790555060008160010160009054906101000a900473ffffffffffffffffffffffffffffffffffffffff1673ffffffffffffffffffffffffffffffffffffffff1682600201546040516109a2906111c5565b60006040518083038185875af1925050503d80600081146109df576040519150601f19603f3d011682016040523d82523d6000602084013e6109e4565b606091505b5050905080610a28576040517f08c379a0000000000000000000000000000000000000000000000000000000008152600401610a1f90611226565b60405180910390fd5b8160010160009054906101000a900473ffffffffffffffffffffffffffffffffffffffff1673ffffffffffffffffffffffffffffffffffffffff16837f88346ddcfd2392e15e303c0177f07fe6c4cf6582252a25106f468f4d686608798460020154604051610a979190611024565b60405180910390a3505050565b600080600080600080600087815260200190815260200160002090508060000160009054906101000a900473ffffffffffffffffffffffffffffffffffffffff168160010160009054906101000a900473ffffffffffffffffffffffffffffffffffffffff1682600201548360040160009054906101000a900460ff169450945094509450509193509193565b610e1081565b600073ffffffffffffffffffffffffffffffffffffffff1660008084815260200190815260200160002060000160009054906101000a900473ffffffffffffffffffffffffffffffffffffffff1673ffffffffffffffffffffffffffffffffffffffff1614610bdb576040517f08c379a0000000000000000000000000000000000000000000000000000000008152600401610bd29061153a565b60405180910390fd5b60003411610c1e576040517f08c379a0000000000000000000000000000000000000000000000000000000008152600401610c15906115a6565b60405180910390fd5b600073ffffffffffffffffffffffffffffffffffffffff168173ffffffffffffffffffffffffffffffffffffffff1603610c8d576040517f08c379a0000000000000000000000000000000000000000000000000000000008152600401610c8490611612565b60405180910390fd5b6040518060c001604052803373ffffffffffffffffffffffffffffffffffffffff1681526020018273ffffffffffffffffffffffffffffffffffffffff1681526020013481526020016000801b81526020016000151581526020014281525060008084815260200190815260200160002060008201518160000160006101000a81548173ffffffffffffffffffffffffffffffffffffffff021916908373ffffffffffffffffffffffffffffffffffffffff16021790555060208201518160010160006101000a81548173ffffffffffffffffffffffffffffffffffffffff021916908373ffffffffffffffffffffffffffffffffffffffff160217905550604082015181600201556060820151816003015560808201518160040160006101000a81548160ff02191690831515021790555060a082015181600501559050508073ffffffffffffffffffffffffffffffffffffffff163373ffffffffffffffffffffffffffffffffffffffff16837fc309295318ec48e5616f50bc92655a2576681e1cf8578a225f1f1a55faa9647b34604051610e2b9190611024565b60405180910390a45050565b600080fd5b6000819050919050565b610e4f81610e3c565b8114610e5a57600080fd5b50565b600081359050610e6c81610e46565b92915050565b60008060408385031215610e8957610e88610e37565b5b6000610e9785828601610e5d565b9250506020610ea885828601610e5d565b9150509250929050565b600073ffffffffffffffffffffffffffffffffffffffff82169050919050565b6000610edd82610eb2565b9050919050565b610eed81610ed2565b82525050565b6000602082019050610f086000830184610ee4565b92915050565b600060208284031215610f2457610f23610e37565b5b6000610f3284828501610e5d565b91505092915050565b6000819050919050565b610f4e81610f3b565b82525050565b610f5d81610e3c565b82525050565b60008115159050919050565b610f7881610f63565b82525050565b600060c082019050610f936000830189610ee4565b610fa06020830188610ee4565b610fad6040830187610f45565b610fba6060830186610f54565b610fc76080830185610f6f565b610fd460a0830184610f45565b979650505050505050565b6000608082019050610ff46000830187610ee4565b6110016020830186610ee4565b61100e6040830185610f45565b61101b6060830184610f6f565b95945050505050565b60006020820190506110396000830184610f45565b92915050565b61104881610ed2565b811461105357600080fd5b50565b6000813590506110658161103f565b92915050565b6000806040838503121561108257611081610e37565b5b600061109085828601610e5d565b92505060206110a185828601611056565b9150509250929050565b600082825260208201905092915050565b7f4e6f7420617574686f72697a6564000000000000000000000000000000000000600082015250565b60006110f2600e836110ab565b91506110fd826110bc565b602082019050919050565b60006020820190508181036000830152611121816110e5565b9050919050565b7f416c72656164792072656c656173656400000000000000000000000000000000600082015250565b600061115e6010836110ab565b915061116982611128565b602082019050919050565b6000602082019050818103600083015261118d81611151565b9050919050565b600081905092915050565b50565b60006111af600083611194565b91506111ba8261119f565b600082019050919050565b60006111d0826111a2565b9150819050919050565b7f455448207472616e73666572206661696c656400000000000000000000000000600082015250565b60006112106013836110ab565b915061121b826111da565b602082019050919050565b6000602082019050818103600083015261123f81611203565b9050919050565b600060408201905061125b6000830185610f54565b6112686020830184610f45565b9392505050565b7f4f6e6c7920726571756573746572000000000000000000000000000000000000600082015250565b60006112a5600e836110ab565b91506112b08261126f565b602082019050919050565b600060208201905081810360008301526112d481611298565b9050919050565b7f4e487b7100000000000000000000000000000000000000000000000000000000600052601160045260246000fd5b600061131582610f3b565b915061132083610f3b565b9250828201905080821115611338576113376112db565b5b92915050565b7f546f6f206561726c790000000000000000000000000000000000000000000000600082015250565b60006113746009836110ab565b915061137f8261133e565b602082019050919050565b600060208201905081810360008301526113a381611367565b9050919050565b7f526566756e64206661696c656400000000000000000000000000000000000000600082015250565b60006113e0600d836110ab565b91506113eb826113aa565b602082019050919050565b6000602082019050818103600083015261140f816113d3565b9050919050565b7f4f6e6c792070726f76696465722063616e20636c61696d2074696d656f757400600082015250565b600061144c601f836110ab565b915061145782611416565b602082019050919050565b6000602082019050818103600083015261147b8161143f565b9050919050565b7f54696d656f7574206e6f74207265616368656400000000000000000000000000600082015250565b60006114b86013836110ab565b91506114c382611482565b602082019050919050565b600060208201905081810360008301526114e7816114ab565b9050919050565b7f4a6f6220494420616c7265616479206578697374730000000000000000000000600082015250565b60006115246015836110ab565b915061152f826114ee565b602082019050919050565b6000602082019050818103600083015261155381611517565b9050919050565b7f4d757374207374616b6520736f6d652045544800000000000000000000000000600082015250565b60006115906013836110ab565b915061159b8261155a565b602082019050919050565b600060208201905081810360008301526115bf81611583565b9050919050565b7f50726f76696465722063616e6e6f74206265207a65726f206164647265737300600082015250565b60006115fc601f836110ab565b9150611607826115c6565b602082019050919050565b6000602082019050818103600083015261162b816115ef565b905091905056fea26469706673582212206d6ebb856b5230c0c10c9f28d5df130b724f2936b0c733fda9719b251cf7db2564736f6c63430008140033",
  "linkReferences": {},
  "deployedLinkReferences": {}
}